:020000040800F2
:100000003009022099020008BD020008BF02000862
:10001000C1020008C3020008C50200080000000079
:10002000000000000000000000000000C7020008FF
:10003000C902000800000000CB020008CD02000841
:10004000CF020008CF020008CF020008CF0200084C
:10005000CF020008CF020008CF020008CF0200083C
:10006000CF020008CF020008CF020008CF0200082C
:10007000CF020008CF020008CF020008CF0200081C
:10008000CF020008CF020008CF020008CF0200080C
:10009000CF020008CF020008CF020008CF020008FC
:1000A000CF020008CF020008CF020008CF020008EC
:1000B000CF020008CF020008CF020008CF020008DC
:1000C000CF020008CF020008CF020008CF020008CC
:1000D000CF02000865030008CF020008CF02000825
:1000E000CF020008CF020008CF020008CF020008AC
:1000F000CF020008CF020008CF020008CF0200089C
:10010000CF020008CF020008CF020008CF0200088B
:10011000CF020008CF020008CF020008CF0200087B
:10012000CF020008CF020008CF020008CF0200086B
:10013000CF020008CF020008CF020008CF0200085B
:10014000CF020008CF020008CF020008CF0200084B
:10015000CF020008CF020008CF020008CF0200083B
:10016000CF020008CF020008CF020008CF0200082B
:10017000CF020008CF020008CF02000800000000F4
:10018000CF020008CF020008CF020008CF0200080B
:10019000CF020008CF020008CF020008CF020008FB
:1001A000CF020008CF020008CF020008CF020008EB
:1001B000CF020008CF020008CF020008CF020008DB
:1001C000CF020008CF02000800000000CF020008A4
:1001D000CF020008CF020008CF020008CF020008BB
:1001E000CF020008CF020008CF020008CF020008AB
:1001F000CF020008CF02000800F002F800F03CF83F
:100200000AA090E8000C82448344AAF10107DA4571
:1002100001D100F031F8AFF2090EBAE80F0013F087
:10022000010F18BFFB1A43F001031847CC0100006F
:10023000EC010000103A24BF78C878C1FAD8520700
:1002400024BF30C830C144BF04680C607047000050
:100250000023002400250026103A28BF78C1FBD8CF
:10026000520728BF30C148BF0B6070471FB500F070
:10027000BDF81FBD10B510BD00F041F81146FFF7E5
:10028000F5FF00F0B1F800F05FF803B4FFF7F2FFFC
:1002900003BC00F0A7F80000DFF84000016841F45B
:1002A00070010160BFF34F8FDFF83400016821F067
:1002B00040410160BFF36F8F0A480047FEE7FEE749
:1002C000FEE7FEE7FEE7FEE7FEE7FEE7FEE7FEE706
:1002D00005480649044A064B7047000088ED00E0D7
:1002E00034EF00E0F901000830010220300902205B
:1002F000300102207047704770477047704775465D
:1003000000F02CF8AE4605006946534620F0070081
:10031000854618B020B5FFF7DBFFBDE820404FF061
:1003200000064FF000074FF000084FF0000B21F0DF
:100330000701AC46ACE8C009ACE8C009ACE8C009AC
:10034000ACE8C0098D46704710B50446AFF3008095
:100350002046BDE81040FFF798BF000000487047F6
:10036000D00002201C49C96901F0200109B31A49D3
:10037000496AC8B21949098801F40041C9B9174945
:10038000098801F4804161B10A2803D00021134A91
:10039000118020E01149098841F400410F4A118081
:1003A00019E00D2806D10D49098841F480410B4A16
:1003B000118010E009490988C1F30D01084A505421
:1003C00006490988491C054A118011460988C72930
:1003D00001DD00211180704700100140040002205F
:1003E0000800022000BF7047002070474FF04070A7
:1003F000E1EE100A70470000180400080000022017
:100400000800000034020008200400080800022050
:100410002809000050020008000000000000000051
:04000005080001F9F5
:00000001FF
